:020000042001D9
:100000001741FF5F13010100938101009D2801004A
:10001000FDBF0F0030030CC10F00300382800F00C2
:10002000300308410F003003828082800F003003CC
:100030002300B5000F0030038280011106CE22CCD0
:1000400000102326A4FE11A0CD378327C4FE1387FA
:10005000F7FF2326E4FEEDFB01000100F2406244BD
:1000600005618280411106C622C40008E9201705F7
:1000700000001305E518B922E1671385076A753F8B
:10008000FDB7797106D622D400189707FF5F9387D2
:1000900067F72326F4FE9707FF5F9387A7F62324CD
:1000A000F4FE9707FF5F9387E7F52320F4FE39A856
:1000B000032784FE930747002324F4FE8327C4FE0E
:1000C000938647002326D4FE184398C3032784FE53
:1000D000832704FEE36EF7FC9707FF5F938787F2A1
:1000E0002322F4FE9707FF5F9387C7F1232EF4FCCA
:1000F00009A8832744FE138747002322E4FE23A098
:100100000700032744FE8327C4FDE364F7FE993FFD
:1001100001A0411106C622C40008B73701103E8570
:10012000FD3DAA8793B7170093F7F70F3E85B240BE
:10013000224441018280011106CE22CC0010B72753
:10014000F400938707402326F4FEF1679387072086
:100150002324F4FE0327C4FE832784FEB357F7024B
:100160002322F4FEB7370110E107832544FE3E85C4
:100170004D35B7370110A10785453E85593DB73745
:100180000110B10785453E8569350100F2406244A2
:1001900005618280011106CE22CC00102326A4FE28
:1001A0000100B73701103E859D3DAA87FDFBB7379B
:1001B00001108325C4FE3E85A93D0100F240624442
:1001C00005618280011106CE22CC00102326A4FEF8
:1001D00019A88327C4FE138717002326E4FE83C7CC
:1001E00007003E85453F8327C4FE83C70700F5F31C
:0C01F00001000100F240624405618280C1
:0A01FC0077616974696E670D0A00EF
:0802080000300110003002106B
:0400000520010000D6
:00000001FF
